{
  "_format": "hh-sol-artifact-1",
  "contractName": "Capy",
  "sourceName": "contracts/capy.sol",
  "abi": [
    {
      "inputs": [
        {
          "internalType": "uint256",
          "name": "challengePeriod_",
          "type": "uint256"
        },
        {
          "internalType": "uint256",
          "name": "commitmentBond_",
          "type": "uint256"
        },
        {
          "internalType": "uint256",
          "name": "version_",
          "type": "uint256"
        },
        {
          "internalType": "uint256",
          "name": "changeDelay_",
          "type": "uint256"
        },
        {
          "internalType": "address",
          "name": "addressHandler_",
          "type": "address"
        },
        {
          "internalType": "contract IERC20",
          "name": "tokenContract_",
          "type": "address"
        }
      ],
      "stateMutability": "nonpayable",
      "type": "constructor"
    },
    {
      "anonymous": false,
      "inputs": [
        {
          "indexed": false,
          "internalType": "uint32",
          "name": "accountIndex",
          "type": "uint32"
        },
        {
          "indexed": false,
          "internalType": "address",
          "name": "accountAddress",
          "type": "address"
        }
      ],
      "name": "AccountCreated",
      "type": "event"
    },
    {
      "anonymous": false,
      "inputs": [
        {
          "indexed": false,
          "internalType": "uint32",
          "name": "blockNumber",
          "type": "uint32"
        },
        {
          "indexed": false,
          "internalType": "bytes32",
          "name": "blockHash",
          "type": "bytes32"
        }
      ],
      "name": "BlockSubmitted",
      "type": "event"
    },
    {
      "anonymous": false,
      "inputs": [
        {
          "indexed": false,
          "internalType": "uint256",
          "name": "hardTransactionIndex",
          "type": "uint256"
        }
      ],
      "name": "NewHardTransaction",
      "type": "event"
    },
    {
      "anonymous": false,
      "inputs": [
        {
          "indexed": true,
          "internalType": "address",
          "name": "previousOwner",
          "type": "address"
        },
        {
          "indexed": true,
          "internalType": "address",
          "name": "newOwner",
          "type": "address"
        }
      ],
      "name": "OwnershipTransferred",
      "type": "event"
    },
    {
      "inputs": [
        {
          "internalType": "uint32",
          "name": "",
          "type": "uint32"
        }
      ],
      "name": "accounts",
      "outputs": [
        {
          "internalType": "address",
          "name": "l1address",
          "type": "address"
        },
        {
          "internalType": "bytes",
          "name": "blsPubKey",
          "type": "bytes"
        }
      ],
      "stateMutability": "view",
      "type": "function"
    },
    {
      "inputs": [],
      "name": "accountsCount",
      "outputs": [
        {
          "internalType": "uint32",
          "name": "",
          "type": "uint32"
        }
      ],
      "stateMutability": "view",
      "type": "function"
    },
    {
      "inputs": [
        {
          "internalType": "address",
          "name": "",
          "type": "address"
        }
      ],
      "name": "accountsIndex",
      "outputs": [
        {
          "internalType": "uint32",
          "name": "",
          "type": "uint32"
        }
      ],
      "stateMutability": "view",
      "type": "function"
    },
    {
      "inputs": [],
      "name": "addressHandler",
      "outputs": [
        {
          "internalType": "address",
          "name": "",
          "type": "address"
        }
      ],
      "stateMutability": "view",
      "type": "function"
    },
    {
      "inputs": [],
      "name": "challengePeriod",
      "outputs": [
        {
          "internalType": "uint256",
          "name": "",
          "type": "uint256"
        }
      ],
      "stateMutability": "view",
      "type": "function"
    },
    {
      "inputs": [],
      "name": "changeDelay",
      "outputs": [
        {
          "internalType": "uint256",
          "name": "",
          "type": "uint256"
        }
      ],
      "stateMutability": "view",
      "type": "function"
    },
    {
      "inputs": [],
      "name": "commitmentBond",
      "outputs": [
        {
          "internalType": "uint256",
          "name": "",
          "type": "uint256"
        }
      ],
      "stateMutability": "view",
      "type": "function"
    },
    {
      "inputs": [
        {
          "components": [
            {
              "internalType": "uint16",
              "name": "version",
              "type": "uint16"
            },
            {
              "internalType": "uint32",
              "name": "blockNumber",
              "type": "uint32"
            },
            {
              "internalType": "uint32",
              "name": "stateSize",
              "type": "uint32"
            },
            {
              "internalType": "bytes32",
              "name": "stateRoot",
              "type": "bytes32"
            },
            {
              "internalType": "uint40",
              "name": "hardTransactionsCount",
              "type": "uint40"
            },
            {
              "internalType": "bytes32",
              "name": "transactionsRoot",
              "type": "bytes32"
            },
            {
              "internalType": "bytes32",
              "name": "transactionsHash",
              "type": "bytes32"
            },
            {
              "internalType": "bytes",
              "name": "aggregateSignature",
              "type": "bytes"
            },
            {
              "internalType": "uint256",
              "name": "submittedAt",
              "type": "uint256"
            }
          ],
          "internalType": "struct BlockLib.BlockHeader",
          "name": "header",
          "type": "tuple"
        }
      ],
      "name": "confirmBlock",
      "outputs": [],
      "stateMutability": "view",
      "type": "function"
    },
    {
      "inputs": [
        {
          "internalType": "uint32",
          "name": "accountIndex",
          "type": "uint32"
        },
        {
          "internalType": "uint256",
          "name": "value",
          "type": "uint256"
        }
      ],
      "name": "deposit",
      "outputs": [],
      "stateMutability": "payable",
      "type": "function"
    },
    {
      "inputs": [
        {
          "internalType": "uint32",
          "name": "index",
          "type": "uint32"
        }
      ],
      "name": "getAccount",
      "outputs": [
        {
          "components": [
            {
              "internalType": "address",
              "name": "l1address",
              "type": "address"
            },
            {
              "internalType": "bytes",
              "name": "blsPubKey",
              "type": "bytes"
            }
          ],
          "internalType": "struct Account.AccountType",
          "name": "",
          "type": "tuple"
        }
      ],
      "stateMutability": "view",
      "type": "function"
    },
    {
      "inputs": [
        {
          "internalType": "address",
          "name": "addr_",
          "type": "address"
        }
      ],
      "name": "getAccountIndex",
      "outputs": [
        {
          "internalType": "uint32",
          "name": "",
          "type": "uint32"
        }
      ],
      "stateMutability": "view",
      "type": "function"
    },
    {
      "inputs": [],
      "name": "getBlockCount",
      "outputs": [
        {
          "internalType": "uint256",
          "name": "",
          "type": "uint256"
        }
      ],
      "stateMutability": "view",
      "type": "function"
    },
    {
      "inputs": [
        {
          "internalType": "uint256",
          "name": "blockNumber",
          "type": "uint256"
        }
      ],
      "name": "getBlockHash",
      "outputs": [
        {
          "internalType": "bytes32",
          "name": "",
          "type": "bytes32"
        }
      ],
      "stateMutability": "view",
      "type": "function"
    },
    {
      "inputs": [],
      "name": "getConfirmedBlockCount",
      "outputs": [
        {
          "internalType": "uint256",
          "name": "",
          "type": "uint256"
        }
      ],
      "stateMutability": "view",
      "type": "function"
    },
    {
      "inputs": [
        {
          "internalType": "uint256",
          "name": "start",
          "type": "uint256"
        },
        {
          "internalType": "uint256",
          "name": "stop",
          "type": "uint256"
        }
      ],
      "name": "getHardTransactionsFrom",
      "outputs": [
        {
          "internalType": "bytes[]",
          "name": "_hardTransactions",
          "type": "bytes[]"
        }
      ],
      "stateMutability": "view",
      "type": "function"
    },
    {
      "inputs": [],
      "name": "owner",
      "outputs": [
        {
          "internalType": "address",
          "name": "",
          "type": "address"
        }
      ],
      "stateMutability": "view",
      "type": "function"
    },
    {
      "inputs": [
        {
          "internalType": "address",
          "name": "addr_",
          "type": "address"
        },
        {
          "internalType": "bytes",
          "name": "blsPubkey_",
          "type": "bytes"
        }
      ],
      "name": "register",
      "outputs": [],
      "stateMutability": "nonpayable",
      "type": "function"
    },
    {
      "inputs": [],
      "name": "renounceOwnership",
      "outputs": [],
      "stateMutability": "nonpayable",
      "type": "function"
    },
    {
      "inputs": [
        {
          "components": [
            {
              "internalType": "uint16",
              "name": "version",
              "type": "uint16"
            },
            {
              "internalType": "uint32",
              "name": "blockNumber",
              "type": "uint32"
            },
            {
              "internalType": "uint32",
              "name": "stateSize",
              "type": "uint32"
            },
            {
              "internalType": "bytes32",
              "name": "stateRoot",
              "type": "bytes32"
            },
            {
              "internalType": "uint40",
              "name": "hardTransactionsCount",
              "type": "uint40"
            },
            {
              "internalType": "bytes32",
              "name": "transactionsRoot",
              "type": "bytes32"
            },
            {
              "internalType": "bytes",
              "name": "aggregateSignature",
              "type": "bytes"
            }
          ],
          "internalType": "struct BlockLib.HeaderInput",
          "name": "header",
          "type": "tuple"
        },
        {
          "internalType": "bytes",
          "name": "transactionsData",
          "type": "bytes"
        }
      ],
      "name": "submitBlock",
      "outputs": [],
      "stateMutability": "nonpayable",
      "type": "function"
    },
    {
      "inputs": [],
      "name": "tokenContract",
      "outputs": [
        {
          "internalType": "contract IERC20",
          "name": "",
          "type": "address"
        }
      ],
      "stateMutability": "view",
      "type": "function"
    },
    {
      "inputs": [],
      "name": "tokenDecimals",
      "outputs": [
        {
          "internalType": "uint256",
          "name": "",
          "type": "uint256"
        }
      ],
      "stateMutability": "view",
      "type": "function"
    },
    {
      "inputs": [
        {
          "internalType": "address",
          "name": "newOwner",
          "type": "address"
        }
      ],
      "name": "transferOwnership",
      "outputs": [],
      "stateMutability": "nonpayable",
      "type": "function"
    },
    {
      "inputs": [],
      "name": "version",
      "outputs": [
        {
          "internalType": "uint256",
          "name": "",
          "type": "uint256"
        }
      ],
      "stateMutability": "view",
      "type": "function"
    }
  ],
  "bytecode": "0x608060405260006004553480156200001657600080fd5b506040516200331c3803806200331c83398181016040528101906200003c919062000458565b6000606067ffffffffffffffff8111156200005c576200005b620004f4565b5b6040519080825280601f01601f1916602001820160405280156200008f5781602001600182028036833780820191505090505b5090506000604051806101200160405280600061ffff168152602001600063ffffffff168152602001600063ffffffff1681526020017f78ccaaab73373552f207a63599de54d7d8d0c1805f86ce7da15818d09f4cff6260001b8152602001600064ffffffffff1681526020016000801b81526020016000801b815260200183815260200160008152509050600060010162000136826200026e60201b62000f271760201c565b908060018154018082558091505060019003906000526020600020016000909190919091505560016000800160006101000a81548163ffffffff021916908363ffffffff1602179055505050620001a262000196620002a060201b60201c565b620002a860201b60201c565b6000600f60006101000a81548163ffffffff021916908363ffffffff1602179055508560058190555084600681905550836007819055508260088190555081600960006101000a81548173ffffffffffffffffffffffffffffffffffffffff021916908373ffffffffffffffffffffffffffffffffffffffff16021790555080600a60006101000a81548173ffffffffffffffffffffffffffffffffffffffff021916908373ffffffffffffffffffffffffffffffffffffffff16021790555050505050505062000746565b60008160405160200162000283919062000722565b604051602081830303815290604052805190602001209050919050565b600033905090565b6000600c60009054906101000a900473ffffffffffffffffffffffffffffffffffffffff16905081600c60006101000a81548173ffffffffffffffffffffffffffffffffffffffff021916908373ffffffffffffffffffffffffffffffffffffffff1602179055508173ffffffffffffffffffffffffffffffffffffffff168173ffffffffffffffffffffffffffffffffffffffff167f8be0079c531659141344cd1fd0a4f28419497f9722a3daafe3b4186f6b6457e060405160405180910390a35050565b600080fd5b6000819050919050565b620003888162000373565b81146200039457600080fd5b50565b600081519050620003a8816200037d565b92915050565b600073ffffffffffffffffffffffffffffffffffffffff82169050919050565b6000620003db82620003ae565b9050919050565b620003ed81620003ce565b8114620003f957600080fd5b50565b6000815190506200040d81620003e2565b92915050565b60006200042082620003ce565b9050919050565b620004328162000413565b81146200043e57600080fd5b50565b600081519050620004528162000427565b92915050565b60008060008060008060c087890312156200047857620004776200036e565b5b60006200048889828a0162000397565b96505060206200049b89828a0162000397565b9550506040620004ae89828a0162000397565b9450506060620004c189828a0162000397565b9350506080620004d489828a01620003fc565b92505060a0620004e789828a0162000441565b9150509295509295509295565b7f4e487b7100000000000000000000000000000000000000000000000000000000600052604160045260246000fd5b600061ffff82169050919050565b6200053c8162000523565b82525050565b600063ffffffff82169050919050565b6200055d8162000542565b82525050565b6000819050919050565b620005788162000563565b82525050565b600064ffffffffff82169050919050565b6200059a816200057e565b82525050565b600081519050919050565b600082825260208201905092915050565b60005b83811015620005dc578082015181840152602081019050620005bf565b60008484015250505050565b6000601f19601f8301169050919050565b60006200060682620005a0565b620006128185620005ab565b935062000624818560208601620005bc565b6200062f81620005e8565b840191505092915050565b620006458162000373565b82525050565b60006101208301600083015162000666600086018262000531565b5060208301516200067b602086018262000552565b50604083015162000690604086018262000552565b506060830151620006a560608601826200056d565b506080830151620006ba60808601826200058f565b5060a0830151620006cf60a08601826200056d565b5060c0830151620006e460c08601826200056d565b5060e083015184820360e0860152620006fe8282620005f9565b915050610100830151620007176101008601826200063a565b508091505092915050565b600060208201905081810360008301526200073e81846200064b565b905092915050565b612bc680620007566000396000f3fe6080604052600436106101405760003560e01c80639ba63e9e116100b6578063cc0bd62e1161006f578063cc0bd62e14610454578063d2f92cbe1461047f578063e5c7ea36146104aa578063ee82ac5e146104d3578063f2fde38b14610510578063f3f480d91461053957610140565b80639ba63e9e1461032a578063aaf1039814610367578063aecf927614610383578063c2cc4822146103c1578063c55e4af8146103ec578063c796d7eb1461041757610140565b80634479d961116101085780634479d9611461022c5780634c2ebc6b1461025557806354fd4d501461029257806355a373d6146102bd578063715018a6146102e85780638da5cb5b146102ff57610140565b806324b8fbf61461014557806327538b301461016e5780632c6f768914610199578063312126d3146101d65780633b97e85614610201575b600080fd5b34801561015157600080fd5b5061016c60048036038101906101679190611682565b610564565b005b34801561017a57600080fd5b506101836107b8565b60405161019091906116fd565b60405180910390f35b3480156101a557600080fd5b506101c060048036038101906101bb919061174e565b6107ce565b6040516101cd91906118cf565b60405180910390f35b3480156101e257600080fd5b506101eb610981565b6040516101f89190611900565b60405180910390f35b34801561020d57600080fd5b50610216610987565b6040516102239190611900565b60405180910390f35b34801561023857600080fd5b50610253600480360381019061024e9190611b2e565b61098d565b005b34801561026157600080fd5b5061027c60048036038101906102779190611baa565b6109a5565b60405161028991906116fd565b60405180910390f35b34801561029e57600080fd5b506102a76109c8565b6040516102b49190611900565b60405180910390f35b3480156102c957600080fd5b506102d26109ce565b6040516102df9190611c36565b60405180910390f35b3480156102f457600080fd5b506102fd6109f4565b005b34801561030b57600080fd5b50610314610a08565b6040516103219190611c60565b60405180910390f35b34801561033657600080fd5b50610351600480360381019061034c9190611baa565b610a32565b60405161035e91906116fd565b60405180910390f35b610381600480360381019061037c9190611c7b565b610a8b565b005b34801561038f57600080fd5b506103aa60048036038101906103a59190611cbb565b610c15565b6040516103b8929190611d32565b60405180910390f35b3480156103cd57600080fd5b506103d6610ce1565b6040516103e39190611900565b60405180910390f35b3480156103f857600080fd5b50610401610d03565b60405161040e9190611900565b60405180910390f35b34801561042357600080fd5b5061043e60048036038101906104399190611cbb565b610d09565b60405161044b9190611dae565b60405180910390f35b34801561046057600080fd5b50610469610e2a565b6040516104769190611900565b60405180910390f35b34801561048b57600080fd5b50610494610e39565b6040516104a19190611c60565b60405180910390f35b3480156104b657600080fd5b506104d160048036038101906104cc9190611df5565b610e5f565b005b3480156104df57600080fd5b506104fa60048036038101906104f59190611e3e565b610e74565b6040516105079190611e7a565b60405180910390f35b34801561051c57600080fd5b5061053760048036038101906105329190611baa565b610e9e565b005b34801561054557600080fd5b5061054e610f21565b60405161055b9190611900565b60405180910390f35b6000600e60008473ffffffffffffffffffffffffffffffffffffffff1673ffffffffffffffffffffffffffffffffffffffff16815260200190815260200160002060009054906101000a900463ffffffff1663ffffffff16146105fc576040517f08c379a00000000000000000000000000000000000000000000000000000000081526004016105f390611ef2565b60405180910390fd5b600f600081819054906101000a900463ffffffff168092919061061e90611f41565b91906101000a81548163ffffffff021916908363ffffffff1602179055505060405180604001604052808373ffffffffffffffffffffffffffffffffffffffff16815260200182815250600d6000600f60009054906101000a900463ffffffff1663ffffffff1663ffffffff16815260200190815260200160002060008201518160000160006101000a81548173ffffffffffffffffffffffffffffffffffffffff021916908373ffffffffffffffffffffffffffffffffffffffff16021790555060208201518160010190816106f5919061216f565b50905050600f60009054906101000a900463ffffffff16600e60008473ffffffffffffffffffffffffffffffffffffffff1673ffffffffffffffffffffffffffffffffffffffff16815260200190815260200160002060006101000a81548163ffffffff021916908363ffffffff1602179055507fc0f621388c93d6f5692a4e2deae7ef33098b370e99fe045ae092353b33eadcaa600f60009054906101000a900463ffffffff16836040516107ac929190612241565b60405180910390a15050565b600f60009054906101000a900463ffffffff1681565b606060008060020180549050905080841061081e576040517f08c379a0000000000000000000000000000000000000000000000000000000008152600401610815906122b6565b60405180910390fd5b8083111561082a578092505b838361083691906122d6565b67ffffffffffffffff81111561084f5761084e611557565b5b60405190808252806020026020018201604052801561088257816020015b606081526020019060019003908161086d5790505b50915060008490505b8381101561097957600060020181815481106108aa576108a961230a565b5b9060005260206000200180546108bf90611f9c565b80601f01602080910402602001604051908101604052809291908181526020018280546108eb90611f9c565b80156109385780601f1061090d57610100808354040283529160200191610938565b820191906000526020600020905b81548152906001019060200180831161091b57829003601f168201915b505050505083868361094a91906122d6565b8151811061095b5761095a61230a565b5b6020026020010181905250808061097190612339565b91505061088b565b505092915050565b60065481565b60045481565b610995610f57565b6109a0838383610fd5565b505050565b600e6020528060005260406000206000915054906101000a900463ffffffff1681565b60075481565b600a60009054906101000a900473ffffffffffffffffffffffffffffffffffffffff1681565b6109fc610f57565b610a066000611101565b565b6000600c60009054906101000a900473ffffffffffffffffffffffffffffffffffffffff16905090565b6000600e60008373ffffffffffffffffffffffffffffffffffffffff1673ffffffffffffffffffffffffffffffffffffffff16815260200190815260200160002060009054906101000a900463ffffffff169050919050565b600a60009054906101000a900473ffffffffffffffffffffffffffffffffffffffff1673ffffffffffffffffffffffffffffffffffffffff166323b872dd3330846040518463ffffffff1660e01b8152600401610aea93929190612381565b6020604051808303816000875af1158015610b09573d6000803e3d6000fd5b505050506040513d601f19601f82011682018060405250810190610b2d91906123f0565b610b6c576040517f08c379a0000000000000000000000000000000000000000000000000000000008152600401610b6390612469565b60405180910390fd5b600060405180606001604052808463ffffffff1681526020013481526020018381525090507f3012210c81fa053ff6d5aff25db1eb5c459bd05cf880076e4e15fdf14115ad8b600060020180549050604051610bc89190611900565b60405180910390a16000600201610bde826111c7565b908060018154018082558091505060019003906000526020600020016000909190919091509081610c0f919061216f565b50505050565b600d6020528060005260406000206000915090508060000160009054906101000a900473ffffffffffffffffffffffffffffffffffffffff1690806001018054610c5e90611f9c565b80601f0160208091040260200160405190810160405280929190818152602001828054610c8a90611f9c565b8015610cd75780601f10610cac57610100808354040283529160200191610cd7565b820191906000526020600020905b815481529060010190602001808311610cba57829003601f168201915b5050505050905082565b60008060000160009054906101000a900463ffffffff1663ffffffff16905090565b60085481565b610d1161142e565b600d60008363ffffffff1663ffffffff1681526020019081526020016000206040518060400160405290816000820160009054906101000a900473ffffffffffffffffffffffffffffffffffffffff1673ffffffffffffffffffffffffffffffffffffffff1673ffffffffffffffffffffffffffffffffffffffff168152602001600182018054610da190611f9c565b80601f0160208091040260200160405190810160405280929190818152602001828054610dcd90611f9c565b8015610e1a5780601f10610def57610100808354040283529160200191610e1a565b820191906000526020600020905b815481529060010190602001808311610dfd57829003601f168201915b5050505050815250509050919050565b60008060010180549050905090565b600960009054906101000a900473ffffffffffffffffffffffffffffffffffffffff1681565b610e7181610e6c90612585565b611200565b50565b6000806001018281548110610e8c57610e8b61230a565b5b90600052602060002001549050919050565b610ea6610f57565b600073ffffffffffffffffffffffffffffffffffffffff168173ffffffffffffffffffffffffffffffffffffffff1603610f15576040517f08c379a0000000000000000000000000000000000000000000000000000000008152600401610f0c9061260a565b60405180910390fd5b610f1e81611101565b50565b60055481565b600081604051602001610f3a919061273a565b604051602081830303815290604052805190602001209050919050565b610f5f61131f565b73ffffffffffffffffffffffffffffffffffffffff16610f7d610a08565b73ffffffffffffffffffffffffffffffffffffffff1614610fd3576040517f08c379a0000000000000000000000000000000000000000000000000000000008152600401610fca906127a8565b60405180910390fd5b565b6000610fe2848484611327565b9050600060010180549050816020015163ffffffff1614611038576040517f08c379a000000000000000000000000000000000000000000000000000000000815260040161102f90612814565b60405180910390fd5b600754816000015161ffff1614611084576040517f08c379a000000000000000000000000000000000000000000000000000000000815260040161107b90612880565b60405180910390fd5b600061108f82610f27565b905060006001018190806001815401808255809150506001900390600052602060002001600090919091909150557f9b856d5e85694d54510b76846e68579c8b969aa0d0c5b2d80a754cc3e56b18cf8260200151826040516110f29291906128a0565b60405180910390a15050505050565b6000600c60009054906101000a900473ffffffffffffffffffffffffffffffffffffffff16905081600c60006101000a81548173ffffffffffffffffffffffffffffffffffffffff021916908373ffffffffffffffffffffffffffffffffffffffff1602179055508173ffffffffffffffffffffffffffffffffffffffff168173ffffffffffffffffffffffffffffffffffffffff167f8be0079c531659141344cd1fd0a4f28419497f9722a3daafe3b4186f6b6457e060405160405180910390a35050565b60608160000151826020015183604001516040516020016111ea93929190612920565b6040516020818303038152906040529050919050565b611222816020015161121183610f27565b60006113c29092919063ffffffff16565b611261576040517f08c379a0000000000000000000000000000000000000000000000000000000008152600401611258906129cf565b60405180910390fd5b4360055482610100015161127591906129ef565b11156112b6576040517f08c379a00000000000000000000000000000000000000000000000000000000081526004016112ad90612a95565b60405180910390fd5b6000800160009054906101000a900463ffffffff1663ffffffff16816020015163ffffffff161461131c576040517f08c379a000000000000000000000000000000000000000000000000000000000815260040161131390612b27565b60405180910390fd5b50565b600033905090565b61132f61145e565b604051806101200160405280856000015161ffff168152602001856020015163ffffffff168152602001856040015163ffffffff16815260200185606001518152602001856080015164ffffffffff1681526020018560a001518152602001848460405161139e929190612b77565b604051809103902081526020018560c0015181526020014381525090509392505050565b60008082856001018563ffffffff16815481106113e2576113e161230a565b5b9060005260206000200154149050806113ff576000915050611427565b8460000160009054906101000a900463ffffffff1663ffffffff168463ffffffff1610159150505b9392505050565b6040518060400160405280600073ffffffffffffffffffffffffffffffffffffffff168152602001606081525090565b604051806101200160405280600061ffff168152602001600063ffffffff168152602001600063ffffffff16815260200160008019168152602001600064ffffffffff168152602001600080191681526020016000801916815260200160608152602001600081525090565b6000604051905090565b600080fd5b600080fd5b600073ffffffffffffffffffffffffffffffffffffffff82169050919050565b6000611509826114de565b9050919050565b611519816114fe565b811461152457600080fd5b50565b60008135905061153681611510565b92915050565b600080fd5b600080fd5b6000601f19601f8301169050919050565b7f4e487b7100000000000000000000000000000000000000000000000000000000600052604160045260246000fd5b61158f82611546565b810181811067ffffffffffffffff821117156115ae576115ad611557565b5b80604052505050565b60006115c16114ca565b90506115cd8282611586565b919050565b600067ffffffffffffffff8211156115ed576115ec611557565b5b6115f682611546565b9050602081019050919050565b82818337600083830152505050565b6000611625611620846115d2565b6115b7565b90508281526020810184848401111561164157611640611541565b5b61164c848285611603565b509392505050565b600082601f8301126116695761166861153c565b5b8135611679848260208601611612565b91505092915050565b60008060408385031215611699576116986114d4565b5b60006116a785828601611527565b925050602083013567ffffffffffffffff8111156116c8576116c76114d9565b5b6116d485828601611654565b9150509250929050565b600063ffffffff82169050919050565b6116f7816116de565b82525050565b600060208201905061171260008301846116ee565b92915050565b6000819050919050565b61172b81611718565b811461173657600080fd5b50565b60008135905061174881611722565b92915050565b60008060408385031215611765576117646114d4565b5b600061177385828601611739565b925050602061178485828601611739565b9150509250929050565b600081519050919050565b600082825260208201905092915050565b6000819050602082019050919050565b600081519050919050565b600082825260208201905092915050565b60005b838110156117f45780820151818401526020810190506117d9565b60008484015250505050565b600061180b826117ba565b61181581856117c5565b93506118258185602086016117d6565b61182e81611546565b840191505092915050565b60006118458383611800565b905092915050565b6000602082019050919050565b60006118658261178e565b61186f8185611799565b935083602082028501611881856117aa565b8060005b858110156118bd578484038952815161189e8582611839565b94506118a98361184d565b925060208a01995050600181019050611885565b50829750879550505050505092915050565b600060208201905081810360008301526118e9818461185a565b905092915050565b6118fa81611718565b82525050565b600060208201905061191560008301846118f1565b92915050565b600080fd5b600080fd5b600061ffff82169050919050565b61193c81611925565b811461194757600080fd5b50565b60008135905061195981611933565b92915050565b611968816116de565b811461197357600080fd5b50565b6000813590506119858161195f565b92915050565b6000819050919050565b61199e8161198b565b81146119a957600080fd5b50565b6000813590506119bb81611995565b92915050565b600064ffffffffff82169050919050565b6119db816119c1565b81146119e657600080fd5b50565b6000813590506119f8816119d2565b92915050565b600060e08284031215611a1457611a1361191b565b5b611a1e60e06115b7565b90506000611a2e8482850161194a565b6000830152506020611a4284828501611976565b6020830152506040611a5684828501611976565b6040830152506060611a6a848285016119ac565b6060830152506080611a7e848285016119e9565b60808301525060a0611a92848285016119ac565b60a08301525060c082013567ffffffffffffffff811115611ab657611ab5611920565b5b611ac284828501611654565b60c08301525092915050565b600080fd5b600080fd5b60008083601f840112611aee57611aed61153c565b5b8235905067ffffffffffffffff811115611b0b57611b0a611ace565b5b602083019150836001820283011115611b2757611b26611ad3565b5b9250929050565b600080600060408486031215611b4757611b466114d4565b5b600084013567ffffffffffffffff811115611b6557611b646114d9565b5b611b71868287016119fe565b935050602084013567ffffffffffffffff811115611b9257611b916114d9565b5b611b9e86828701611ad8565b92509250509250925092565b600060208284031215611bc057611bbf6114d4565b5b6000611bce84828501611527565b91505092915050565b6000819050919050565b6000611bfc611bf7611bf2846114de565b611bd7565b6114de565b9050919050565b6000611c0e82611be1565b9050919050565b6000611c2082611c03565b9050919050565b611c3081611c15565b82525050565b6000602082019050611c4b6000830184611c27565b92915050565b611c5a816114fe565b82525050565b6000602082019050611c756000830184611c51565b92915050565b60008060408385031215611c9257611c916114d4565b5b6000611ca085828601611976565b9250506020611cb185828601611739565b9150509250929050565b600060208284031215611cd157611cd06114d4565b5b6000611cdf84828501611976565b91505092915050565b600082825260208201905092915050565b6000611d04826117ba565b611d0e8185611ce8565b9350611d1e8185602086016117d6565b611d2781611546565b840191505092915050565b6000604082019050611d476000830185611c51565b8181036020830152611d598184611cf9565b90509392505050565b611d6b816114fe565b82525050565b6000604083016000830151611d896000860182611d62565b5060208301518482036020860152611da18282611800565b9150508091505092915050565b60006020820190508181036000830152611dc88184611d71565b905092915050565b600080fd5b60006101208284031215611dec57611deb611dd0565b5b81905092915050565b600060208284031215611e0b57611e0a6114d4565b5b600082013567ffffffffffffffff811115611e2957611e286114d9565b5b611e3584828501611dd5565b91505092915050565b600060208284031215611e5457611e536114d4565b5b6000611e6284828501611739565b91505092915050565b611e748161198b565b82525050565b6000602082019050611e8f6000830184611e6b565b92915050565b600082825260208201905092915050565b7f4163636f756e7420616c72656164792072656769737465726564000000000000600082015250565b6000611edc601a83611e95565b9150611ee782611ea6565b602082019050919050565b60006020820190508181036000830152611f0b81611ecf565b9050919050565b7f4e487b7100000000000000000000000000000000000000000000000000000000600052601160045260246000fd5b6000611f4c826116de565b915063ffffffff8203611f6257611f61611f12565b5b600182019050919050565b7f4e487b7100000000000000000000000000000000000000000000000000000000600052602260045260246000fd5b60006002820490506001821680611fb457607f821691505b602082108103611fc757611fc6611f6d565b5b50919050565b60008190508160005260206000209050919050565b60006020601f8301049050919050565b600082821b905092915050565b60006008830261202f7fffffffffffffffffffffffffffffffffffffffffffffffffffffffffffffffff82611ff2565b6120398683611ff2565b95508019841693508086168417925050509392505050565b600061206c61206761206284611718565b611bd7565b611718565b9050919050565b6000819050919050565b61208683612051565b61209a61209282612073565b848454611fff565b825550505050565b600090565b6120af6120a2565b6120ba81848461207d565b505050565b5b818110156120de576120d36000826120a7565b6001810190506120c0565b5050565b601f821115612123576120f481611fcd565b6120fd84611fe2565b8101602085101561210c578190505b61212061211885611fe2565b8301826120bf565b50505b505050565b600082821c905092915050565b600061214660001984600802612128565b1980831691505092915050565b600061215f8383612135565b9150826002028217905092915050565b612178826117ba565b67ffffffffffffffff81111561219157612190611557565b5b61219b8254611f9c565b6121a68282856120e2565b600060209050601f8311600181146121d957600084156121c7578287015190505b6121d18582612153565b865550612239565b601f1984166121e786611fcd565b60005b8281101561220f578489015182556001820191506020850194506020810190506121ea565b8683101561222c5784890151612228601f891682612135565b8355505b6001600288020188555050505b505050505050565b600060408201905061225660008301856116ee565b6122636020830184611c51565b9392505050565b7f537461727420696e646578206f7574206f6620626f756e64732e000000000000600082015250565b60006122a0601a83611e95565b91506122ab8261226a565b602082019050919050565b600060208201905081810360008301526122cf81612293565b9050919050565b60006122e182611718565b91506122ec83611718565b925082820390508181111561230457612303611f12565b5b92915050565b7f4e487b7100000000000000000000000000000000000000000000000000000000600052603260045260246000fd5b600061234482611718565b91507fffffffffffffffffffffffffffffffffffffffffffffffffffffffffffffffff820361237657612375611f12565b5b600182019050919050565b60006060820190506123966000830186611c51565b6123a36020830185611c51565b6123b060408301846118f1565b949350505050565b60008115159050919050565b6123cd816123b8565b81146123d857600080fd5b50565b6000815190506123ea816123c4565b92915050565b600060208284031215612406576124056114d4565b5b6000612414848285016123db565b91505092915050565b7f5472616e73666572206661696c65642e00000000000000000000000000000000600082015250565b6000612453601083611e95565b915061245e8261241d565b602082019050919050565b6000602082019050818103600083015261248281612446565b9050919050565b600061012082840312156124a05761249f61191b565b5b6124ab6101206115b7565b905060006124bb8482850161194a565b60008301525060206124cf84828501611976565b60208301525060406124e384828501611976565b60408301525060606124f7848285016119ac565b606083015250608061250b848285016119e9565b60808301525060a061251f848285016119ac565b60a08301525060c0612533848285016119ac565b60c08301525060e082013567ffffffffffffffff81111561255757612556611920565b5b61256384828501611654565b60e08301525061010061257884828501611739565b6101008301525092915050565b60006125913683612489565b9050919050565b7f4f776e61626c653a206e6577206f776e657220697320746865207a65726f206160008201527f6464726573730000000000000000000000000000000000000000000000000000602082015250565b60006125f4602683611e95565b91506125ff82612598565b604082019050919050565b60006020820190508181036000830152612623816125e7565b9050919050565b61263381611925565b82525050565b612642816116de565b82525050565b6126518161198b565b82525050565b612660816119c1565b82525050565b61266f81611718565b82525050565b60006101208301600083015161268e600086018261262a565b5060208301516126a16020860182612639565b5060408301516126b46040860182612639565b5060608301516126c76060860182612648565b5060808301516126da6080860182612657565b5060a08301516126ed60a0860182612648565b5060c083015161270060c0860182612648565b5060e083015184820360e08601526127188282611800565b91505061010083015161272f610100860182612666565b508091505092915050565b600060208201905081810360008301526127548184612675565b905092915050565b7f4f776e61626c653a2063616c6c6572206973206e6f7420746865206f776e6572600082015250565b6000612792602083611e95565b915061279d8261275c565b602082019050919050565b600060208201905081810360008301526127c181612785565b9050919050565b7f496e76616c696420626c6f636b206e756d6265722e0000000000000000000000600082015250565b60006127fe601583611e95565b9150612809826127c8565b602082019050919050565b6000602082019050818103600083015261282d816127f1565b9050919050565b7f56657273696f6e206d69736d617463682e000000000000000000000000000000600082015250565b600061286a601183611e95565b915061287582612834565b602082019050919050565b600060208201905081810360008301526128998161285d565b9050919050565b60006040820190506128b560008301856116ee565b6128c26020830184611e6b565b9392505050565b60008160e01b9050919050565b60006128e1826128c9565b9050919050565b6128f96128f4826116de565b6128d6565b82525050565b6000819050919050565b61291a61291582611718565b6128ff565b82525050565b600061292c82866128e8565b60048201915061293c8285612909565b60208201915061294c8284612909565b602082019150819050949350505050565b7f4f6e6c792070656e64696e6720626c6f636b732063616e20626520636f6e666960008201527f726d65642e000000000000000000000000000000000000000000000000000000602082015250565b60006129b9602583611e95565b91506129c48261295d565b604082019050919050565b600060208201905081810360008301526129e8816129ac565b9050919050565b60006129fa82611718565b9150612a0583611718565b9250828201905080821115612a1d57612a1c611f12565b5b92915050565b7f4368616c6c656e676520706572696f64207374696c6c20696e2070726f67726560008201527f73732e0000000000000000000000000000000000000000000000000000000000602082015250565b6000612a7f602383611e95565b9150612a8a82612a23565b604082019050919050565b60006020820190508181036000830152612aae81612a72565b9050919050565b7f426c6f636b73206d75737420626520636f6e6669726d656420696e206f72646560008201527f722e000000000000000000000000000000000000000000000000000000000000602082015250565b6000612b11602283611e95565b9150612b1c82612ab5565b604082019050919050565b60006020820190508181036000830152612b4081612b04565b9050919050565b600081905092915050565b6000612b5e8385612b47565b9350612b6b838584611603565b82840190509392505050565b6000612b84828486612b52565b9150819050939250505056fea26469706673582212205c74fdb488c9018ec5a133e6e775ff8a88bde2c9d0683009c3918244fd26222664736f6c63430008120033",
  "linkReferences": {},
  "deployedLinkReferences": {}
}