{
  "_format": "hh-sol-artifact-1",
  "contractName": "Capy",
  "sourceName": "contracts/capy.sol",
  "abi": [
    {
      "inputs": [
        {
          "internalType": "uint256",
          "name": "challengePeriod_",
          "type": "uint256"
        },
        {
          "internalType": "uint256",
          "name": "commitmentBond_",
          "type": "uint256"
        },
        {
          "internalType": "uint256",
          "name": "version_",
          "type": "uint256"
        },
        {
          "internalType": "uint256",
          "name": "changeDelay_",
          "type": "uint256"
        },
        {
          "internalType": "address",
          "name": "addressHandler_",
          "type": "address"
        },
        {
          "internalType": "contract IERC20",
          "name": "tokenContract_",
          "type": "address"
        }
      ],
      "stateMutability": "nonpayable",
      "type": "constructor"
    },
    {
      "anonymous": false,
      "inputs": [
        {
          "indexed": false,
          "internalType": "uint32",
          "name": "accountIndex",
          "type": "uint32"
        },
        {
          "indexed": false,
          "internalType": "address",
          "name": "accountAddress",
          "type": "address"
        }
      ],
      "name": "AccountCreated",
      "type": "event"
    },
    {
      "anonymous": false,
      "inputs": [
        {
          "indexed": false,
          "internalType": "uint32",
          "name": "blockNumber",
          "type": "uint32"
        },
        {
          "indexed": false,
          "internalType": "bytes32",
          "name": "blockHash",
          "type": "bytes32"
        }
      ],
      "name": "BlockSubmitted",
      "type": "event"
    },
    {
      "anonymous": false,
      "inputs": [
        {
          "indexed": false,
          "internalType": "uint256",
          "name": "hardTransactionIndex",
          "type": "uint256"
        }
      ],
      "name": "NewHardTransaction",
      "type": "event"
    },
    {
      "anonymous": false,
      "inputs": [
        {
          "indexed": true,
          "internalType": "address",
          "name": "previousOwner",
          "type": "address"
        },
        {
          "indexed": true,
          "internalType": "address",
          "name": "newOwner",
          "type": "address"
        }
      ],
      "name": "OwnershipTransferred",
      "type": "event"
    },
    {
      "inputs": [
        {
          "internalType": "uint32",
          "name": "",
          "type": "uint32"
        }
      ],
      "name": "accounts",
      "outputs": [
        {
          "internalType": "address",
          "name": "",
          "type": "address"
        }
      ],
      "stateMutability": "view",
      "type": "function"
    },
    {
      "inputs": [],
      "name": "accountsCount",
      "outputs": [
        {
          "internalType": "uint32",
          "name": "",
          "type": "uint32"
        }
      ],
      "stateMutability": "view",
      "type": "function"
    },
    {
      "inputs": [
        {
          "internalType": "address",
          "name": "",
          "type": "address"
        }
      ],
      "name": "accountsIndex",
      "outputs": [
        {
          "internalType": "uint32",
          "name": "",
          "type": "uint32"
        }
      ],
      "stateMutability": "view",
      "type": "function"
    },
    {
      "inputs": [],
      "name": "addressHandler",
      "outputs": [
        {
          "internalType": "address",
          "name": "",
          "type": "address"
        }
      ],
      "stateMutability": "view",
      "type": "function"
    },
    {
      "inputs": [],
      "name": "challengePeriod",
      "outputs": [
        {
          "internalType": "uint256",
          "name": "",
          "type": "uint256"
        }
      ],
      "stateMutability": "view",
      "type": "function"
    },
    {
      "inputs": [],
      "name": "changeDelay",
      "outputs": [
        {
          "internalType": "uint256",
          "name": "",
          "type": "uint256"
        }
      ],
      "stateMutability": "view",
      "type": "function"
    },
    {
      "inputs": [],
      "name": "commitmentBond",
      "outputs": [
        {
          "internalType": "uint256",
          "name": "",
          "type": "uint256"
        }
      ],
      "stateMutability": "view",
      "type": "function"
    },
    {
      "inputs": [
        {
          "components": [
            {
              "internalType": "uint16",
              "name": "version",
              "type": "uint16"
            },
            {
              "internalType": "uint32",
              "name": "blockNumber",
              "type": "uint32"
            },
            {
              "internalType": "uint32",
              "name": "stateSize",
              "type": "uint32"
            },
            {
              "internalType": "bytes32",
              "name": "stateRoot",
              "type": "bytes32"
            },
            {
              "internalType": "uint40",
              "name": "hardTransactionsCount",
              "type": "uint40"
            },
            {
              "internalType": "bytes32",
              "name": "transactionsRoot",
              "type": "bytes32"
            },
            {
              "internalType": "bytes32",
              "name": "transactionsHash",
              "type": "bytes32"
            },
            {
              "internalType": "uint256",
              "name": "submittedAt",
              "type": "uint256"
            }
          ],
          "internalType": "struct BlockLib.BlockHeader",
          "name": "header",
          "type": "tuple"
        }
      ],
      "name": "confirmBlock",
      "outputs": [],
      "stateMutability": "view",
      "type": "function"
    },
    {
      "inputs": [
        {
          "internalType": "uint32",
          "name": "accountIndex",
          "type": "uint32"
        },
        {
          "internalType": "uint256",
          "name": "value",
          "type": "uint256"
        }
      ],
      "name": "deposit",
      "outputs": [],
      "stateMutability": "payable",
      "type": "function"
    },
    {
      "inputs": [
        {
          "internalType": "uint32",
          "name": "index",
          "type": "uint32"
        }
      ],
      "name": "getAccount",
      "outputs": [
        {
          "internalType": "address",
          "name": "",
          "type": "address"
        }
      ],
      "stateMutability": "view",
      "type": "function"
    },
    {
      "inputs": [
        {
          "internalType": "address",
          "name": "addr_",
          "type": "address"
        }
      ],
      "name": "getAccountIndex",
      "outputs": [
        {
          "internalType": "uint32",
          "name": "",
          "type": "uint32"
        }
      ],
      "stateMutability": "view",
      "type": "function"
    },
    {
      "inputs": [],
      "name": "getBlockCount",
      "outputs": [
        {
          "internalType": "uint256",
          "name": "",
          "type": "uint256"
        }
      ],
      "stateMutability": "view",
      "type": "function"
    },
    {
      "inputs": [
        {
          "internalType": "uint256",
          "name": "blockNumber",
          "type": "uint256"
        }
      ],
      "name": "getBlockHash",
      "outputs": [
        {
          "internalType": "bytes32",
          "name": "",
          "type": "bytes32"
        }
      ],
      "stateMutability": "view",
      "type": "function"
    },
    {
      "inputs": [],
      "name": "getConfirmedBlockCount",
      "outputs": [
        {
          "internalType": "uint256",
          "name": "",
          "type": "uint256"
        }
      ],
      "stateMutability": "view",
      "type": "function"
    },
    {
      "inputs": [
        {
          "internalType": "uint256",
          "name": "start",
          "type": "uint256"
        },
        {
          "internalType": "uint256",
          "name": "max",
          "type": "uint256"
        }
      ],
      "name": "getHardTransactionsFrom",
      "outputs": [
        {
          "internalType": "bytes[]",
          "name": "_hardTransactions",
          "type": "bytes[]"
        }
      ],
      "stateMutability": "view",
      "type": "function"
    },
    {
      "inputs": [],
      "name": "owner",
      "outputs": [
        {
          "internalType": "address",
          "name": "",
          "type": "address"
        }
      ],
      "stateMutability": "view",
      "type": "function"
    },
    {
      "inputs": [
        {
          "internalType": "address",
          "name": "addr_",
          "type": "address"
        }
      ],
      "name": "register",
      "outputs": [],
      "stateMutability": "nonpayable",
      "type": "function"
    },
    {
      "inputs": [],
      "name": "renounceOwnership",
      "outputs": [],
      "stateMutability": "nonpayable",
      "type": "function"
    },
    {
      "inputs": [
        {
          "components": [
            {
              "internalType": "uint16",
              "name": "version",
              "type": "uint16"
            },
            {
              "internalType": "uint32",
              "name": "blockNumber",
              "type": "uint32"
            },
            {
              "internalType": "uint32",
              "name": "stateSize",
              "type": "uint32"
            },
            {
              "internalType": "bytes32",
              "name": "stateRoot",
              "type": "bytes32"
            },
            {
              "internalType": "uint40",
              "name": "hardTransactionsCount",
              "type": "uint40"
            },
            {
              "internalType": "bytes32",
              "name": "transactionsRoot",
              "type": "bytes32"
            }
          ],
          "internalType": "struct BlockLib.HeaderInput",
          "name": "header",
          "type": "tuple"
        },
        {
          "internalType": "bytes",
          "name": "transactionsData",
          "type": "bytes"
        }
      ],
      "name": "submitBlock",
      "outputs": [],
      "stateMutability": "nonpayable",
      "type": "function"
    },
    {
      "inputs": [],
      "name": "tokenContract",
      "outputs": [
        {
          "internalType": "contract IERC20",
          "name": "",
          "type": "address"
        }
      ],
      "stateMutability": "view",
      "type": "function"
    },
    {
      "inputs": [],
      "name": "tokenDecimals",
      "outputs": [
        {
          "internalType": "uint256",
          "name": "",
          "type": "uint256"
        }
      ],
      "stateMutability": "view",
      "type": "function"
    },
    {
      "inputs": [
        {
          "internalType": "address",
          "name": "newOwner",
          "type": "address"
        }
      ],
      "name": "transferOwnership",
      "outputs": [],
      "stateMutability": "nonpayable",
      "type": "function"
    },
    {
      "inputs": [],
      "name": "version",
      "outputs": [
        {
          "internalType": "uint256",
          "name": "",
          "type": "uint256"
        }
      ],
      "stateMutability": "view",
      "type": "function"
    }
  ],
  "bytecode": "0x608060405260006004553480156200001657600080fd5b5060405162002c9e38038062002c9e83398181016040528101906200003c9190620003fb565b6000604051806101000160405280600061ffff168152602001600063ffffffff168152602001600063ffffffff1681526020017f78ccaaab73373552f207a63599de54d7d8d0c1805f86ce7da15818d09f4cff6260001b8152602001600064ffffffffff1681526020016000801b81526020016000801b8152602001600081525090506000600101620000da826200021160201b62000d3e1760201c565b908060018154018082558091505060019003906000526020600020016000909190919091505560016000800160006101000a81548163ffffffff021916908363ffffffff1602179055505062000145620001396200024360201b60201c565b6200024b60201b60201c565b6000600f60006101000a81548163ffffffff021916908363ffffffff1602179055508560058190555084600681905550836007819055508260088190555081600960006101000a81548173ffffffffffffffffffffffffffffffffffffffff021916908373ffffffffffffffffffffffffffffffffffffffff16021790555080600a60006101000a81548173ffffffffffffffffffffffffffffffffffffffff021916908373ffffffffffffffffffffffffffffffffffffffff160217905550505050505050620005f5565b600081604051602001620002269190620005d7565b604051602081830303815290604052805190602001209050919050565b600033905090565b6000600c60009054906101000a900473ffffffffffffffffffffffffffffffffffffffff16905081600c60006101000a81548173ffffffffffffffffffffffffffffffffffffffff021916908373ffffffffffffffffffffffffffffffffffffffff1602179055508173ffffffffffffffffffffffffffffffffffffffff168173ffffffffffffffffffffffffffffffffffffffff167f8be0079c531659141344cd1fd0a4f28419497f9722a3daafe3b4186f6b6457e060405160405180910390a35050565b600080fd5b6000819050919050565b6200032b8162000316565b81146200033757600080fd5b50565b6000815190506200034b8162000320565b92915050565b600073ffffffffffffffffffffffffffffffffffffffff82169050919050565b60006200037e8262000351565b9050919050565b620003908162000371565b81146200039c57600080fd5b50565b600081519050620003b08162000385565b92915050565b6000620003c38262000371565b9050919050565b620003d581620003b6565b8114620003e157600080fd5b50565b600081519050620003f581620003ca565b92915050565b60008060008060008060c087890312156200041b576200041a62000311565b5b60006200042b89828a016200033a565b96505060206200043e89828a016200033a565b95505060406200045189828a016200033a565b94505060606200046489828a016200033a565b93505060806200047789828a016200039f565b92505060a06200048a89828a01620003e4565b9150509295509295509295565b600061ffff82169050919050565b620004b08162000497565b82525050565b600063ffffffff82169050919050565b620004d181620004b6565b82525050565b6000819050919050565b620004ec81620004d7565b82525050565b600064ffffffffff82169050919050565b6200050e81620004f2565b82525050565b6200051f8162000316565b82525050565b610100820160008201516200053e6000850182620004a5565b506020820151620005536020850182620004c6565b506040820151620005686040850182620004c6565b5060608201516200057d6060850182620004e1565b50608082015162000592608085018262000503565b5060a0820151620005a760a0850182620004e1565b5060c0820151620005bc60c0850182620004e1565b5060e0820151620005d160e085018262000514565b50505050565b600061010082019050620005ef600083018462000525565b92915050565b61269980620006056000396000f3fe6080604052600436106101405760003560e01c8063a70f0a68116100b6578063c8fbc0d01161006f578063c8fbc0d014610453578063cc0bd62e1461047c578063d2f92cbe146104a7578063ee82ac5e146104d2578063f2fde38b1461050f578063f3f480d91461053857610140565b8063a70f0a681461033e578063aaf1039814610367578063aecf927614610383578063c2cc4822146103c0578063c55e4af8146103eb578063c796d7eb1461041657610140565b80634c2ebc6b116101085780634c2ebc6b1461022c57806354fd4d501461026957806355a373d614610294578063715018a6146102bf5780638da5cb5b146102d65780639ba63e9e1461030157610140565b806327538b30146101455780632c6f768914610170578063312126d3146101ad5780633b97e856146101d85780634420e48614610203575b600080fd5b34801561015157600080fd5b5061015a610563565b60405161016791906112be565b60405180910390f35b34801561017c57600080fd5b5061019760048036038101906101929190611323565b610579565b6040516101a491906114b5565b60405180910390f35b3480156101b957600080fd5b506101c26106fb565b6040516101cf91906114e6565b60405180910390f35b3480156101e457600080fd5b506101ed610701565b6040516101fa91906114e6565b60405180910390f35b34801561020f57600080fd5b5061022a6004803603810190610225919061155f565b610707565b005b34801561023857600080fd5b50610253600480360381019061024e919061155f565b61090e565b60405161026091906112be565b60405180910390f35b34801561027557600080fd5b5061027e610931565b60405161028b91906114e6565b60405180910390f35b3480156102a057600080fd5b506102a9610937565b6040516102b691906115eb565b60405180910390f35b3480156102cb57600080fd5b506102d461095d565b005b3480156102e257600080fd5b506102eb610971565b6040516102f89190611615565b60405180910390f35b34801561030d57600080fd5b506103286004803603810190610323919061155f565b61099b565b60405161033591906112be565b60405180910390f35b34801561034a57600080fd5b506103656004803603810190610360919061188e565b6109f4565b005b610381600480360381019061037c91906118ee565b610a0c565b005b34801561038f57600080fd5b506103aa60048036038101906103a5919061192e565b610b96565b6040516103b79190611615565b60405180910390f35b3480156103cc57600080fd5b506103d5610bc9565b6040516103e291906114e6565b60405180910390f35b3480156103f757600080fd5b50610400610beb565b60405161040d91906114e6565b60405180910390f35b34801561042257600080fd5b5061043d6004803603810190610438919061192e565b610bf1565b60405161044a9190611615565b60405180910390f35b34801561045f57600080fd5b5061047a60048036038101906104759190611980565b610c3a565b005b34801561048857600080fd5b50610491610c56565b60405161049e91906114e6565b60405180910390f35b3480156104b357600080fd5b506104bc610c65565b6040516104c99190611615565b60405180910390f35b3480156104de57600080fd5b506104f960048036038101906104f491906119ae565b610c8b565b60405161050691906119ea565b60405180910390f35b34801561051b57600080fd5b506105366004803603810190610531919061155f565b610cb5565b005b34801561054457600080fd5b5061054d610d38565b60405161055a91906114e6565b60405180910390f35b600f60009054906101000a900463ffffffff1681565b6060600080600201805490509050600083856105959190611a34565b9050818111156105a3578190505b84816105af9190611a68565b91508167ffffffffffffffff8111156105cb576105ca611635565b5b6040519080825280602002602001820160405280156105fe57816020015b60608152602001906001900390816105e95790505b50925060005b828110156106f2576000600201868261061d9190611a34565b8154811061062e5761062d611a9c565b5b90600052602060002001805461064390611afa565b80601f016020809104026020016040519081016040528092919081815260200182805461066f90611afa565b80156106bc5780601f10610691576101008083540402835291602001916106bc565b820191906000526020600020905b81548152906001019060200180831161069f57829003601f168201915b50505050508482815181106106d4576106d3611a9c565b5b602002602001018190525080806106ea90611b2b565b915050610604565b50505092915050565b60065481565b60045481565b6000600e60008373ffffffffffffffffffffffffffffffffffffffff1673ffffffffffffffffffffffffffffffffffffffff16815260200190815260200160002060009054906101000a900463ffffffff1663ffffffff161461079f576040517f08c379a000000000000000000000000000000000000000000000000000000000815260040161079690611bd0565b60405180910390fd5b600f600081819054906101000a900463ffffffff16809291906107c190611bf0565b91906101000a81548163ffffffff021916908363ffffffff1602179055505080600d6000600f60009054906101000a900463ffffffff1663ffffffff1663ffffffff16815260200190815260200160002060006101000a81548173ffffffffffffffffffffffffffffffffffffffff021916908373ffffffffffffffffffffffffffffffffffffffff160217905550600f60009054906101000a900463ffffffff16600e60008373ffffffffffffffffffffffffffffffffffffffff1673ffffffffffffffffffffffffffffffffffffffff16815260200190815260200160002060006101000a81548163ffffffff021916908363ffffffff1602179055507fc0f621388c93d6f5692a4e2deae7ef33098b370e99fe045ae092353b33eadcaa600f60009054906101000a900463ffffffff1682604051610903929190611c1c565b60405180910390a150565b600e6020528060005260406000206000915054906101000a900463ffffffff1681565b60075481565b600a60009054906101000a900473ffffffffffffffffffffffffffffffffffffffff1681565b610965610d6e565b61096f6000610dec565b565b6000600c60009054906101000a900473ffffffffffffffffffffffffffffffffffffffff16905090565b6000600e60008373ffffffffffffffffffffffffffffffffffffffff1673ffffffffffffffffffffffffffffffffffffffff16815260200190815260200160002060009054906101000a900463ffffffff169050919050565b6109fc610d6e565b610a07838383610eb2565b505050565b600a60009054906101000a900473ffffffffffffffffffffffffffffffffffffffff1673ffffffffffffffffffffffffffffffffffffffff166323b872dd3330846040518463ffffffff1660e01b8152600401610a6b93929190611c45565b6020604051808303816000875af1158015610a8a573d6000803e3d6000fd5b505050506040513d601f19601f82011682018060405250810190610aae9190611cb4565b610aed576040517f08c379a0000000000000000000000000000000000000000000000000000000008152600401610ae490611d2d565b60405180910390fd5b600060405180606001604052808463ffffffff1681526020013481526020018381525090507f3012210c81fa053ff6d5aff25db1eb5c459bd05cf880076e4e15fdf14115ad8b600060020180549050604051610b4991906114e6565b60405180910390a16000600201610b5f82610fde565b908060018154018082558091505060019003906000526020600020016000909190919091509081610b909190611eef565b50505050565b600d6020528060005260406000206000915054906101000a900473ffffffffffffffffffffffffffffffffffffffff1681565b60008060000160009054906101000a900463ffffffff1663ffffffff16905090565b60085481565b6000600d60008363ffffffff1663ffffffff16815260200190815260200160002060009054906101000a900473ffffffffffffffffffffffffffffffffffffffff169050919050565b610c5381803603810190610c4e919061208b565b611017565b50565b60008060010180549050905090565b600960009054906101000a900473ffffffffffffffffffffffffffffffffffffffff1681565b6000806001018281548110610ca357610ca2611a9c565b5b90600052602060002001549050919050565b610cbd610d6e565b600073ffffffffffffffffffffffffffffffffffffffff168173ffffffffffffffffffffffffffffffffffffffff1603610d2c576040517f08c379a0000000000000000000000000000000000000000000000000000000008152600401610d239061212b565b60405180910390fd5b610d3581610dec565b50565b60055481565b600081604051602001610d519190612238565b604051602081830303815290604052805190602001209050919050565b610d76611135565b73ffffffffffffffffffffffffffffffffffffffff16610d94610971565b73ffffffffffffffffffffffffffffffffffffffff1614610dea576040517f08c379a0000000000000000000000000000000000000000000000000000000008152600401610de1906122a0565b60405180910390fd5b565b6000600c60009054906101000a900473ffffffffffffffffffffffffffffffffffffffff16905081600c60006101000a81548173ffffffffffffffffffffffffffffffffffffffff021916908373ffffffffffffffffffffffffffffffffffffffff1602179055508173ffffffffffffffffffffffffffffffffffffffff168173ffffffffffffffffffffffffffffffffffffffff167f8be0079c531659141344cd1fd0a4f28419497f9722a3daafe3b4186f6b6457e060405160405180910390a35050565b6000610ebf84848461113d565b9050600060010180549050816020015163ffffffff1614610f15576040517f08c379a0000000000000000000000000000000000000000000000000000000008152600401610f0c9061230c565b60405180910390fd5b600754816000015161ffff1614610f61576040517f08c379a0000000000000000000000000000000000000000000000000000000008152600401610f5890612378565b60405180910390fd5b6000610f6c82610d3e565b905060006001018190806001815401808255809150506001900390600052602060002001600090919091909150557f9b856d5e85694d54510b76846e68579c8b969aa0d0c5b2d80a754cc3e56b18cf826020015182604051610fcf929190612398565b60405180910390a15050505050565b606081600001518260200151836040015160405160200161100193929190612418565b6040516020818303038152906040529050919050565b611039816020015161102883610d3e565b60006111ce9092919063ffffffff16565b611078576040517f08c379a000000000000000000000000000000000000000000000000000000000815260040161106f906124c7565b60405180910390fd5b436005548260e0015161108b9190611a34565b11156110cc576040517f08c379a00000000000000000000000000000000000000000000000000000000081526004016110c390612559565b60405180910390fd5b6000800160009054906101000a900463ffffffff1663ffffffff16816020015163ffffffff1614611132576040517f08c379a0000000000000000000000000000000000000000000000000000000008152600401611129906125eb565b60405180910390fd5b50565b600033905090565b61114561123a565b604051806101000160405280856000015161ffff168152602001856020015163ffffffff168152602001856040015163ffffffff16815260200185606001518152602001856080015164ffffffffff1681526020018560a00151815260200184846040516111b492919061264a565b604051809103902081526020014381525090509392505050565b60008082856001018563ffffffff16815481106111ee576111ed611a9c565b5b90600052602060002001541490508061120b576000915050611233565b8460000160009054906101000a900463ffffffff1663ffffffff168463ffffffff1610159150505b9392505050565b604051806101000160405280600061ffff168152602001600063ffffffff168152602001600063ffffffff16815260200160008019168152602001600064ffffffffff1681526020016000801916815260200160008019168152602001600081525090565b600063ffffffff82169050919050565b6112b88161129f565b82525050565b60006020820190506112d360008301846112af565b92915050565b6000604051905090565b600080fd5b600080fd5b6000819050919050565b611300816112ed565b811461130b57600080fd5b50565b60008135905061131d816112f7565b92915050565b6000806040838503121561133a576113396112e3565b5b60006113488582860161130e565b92505060206113598582860161130e565b9150509250929050565b600081519050919050565b600082825260208201905092915050565b6000819050602082019050919050565b600081519050919050565b600082825260208201905092915050565b60005b838110156113c95780820151818401526020810190506113ae565b60008484015250505050565b6000601f19601f8301169050919050565b60006113f18261138f565b6113fb818561139a565b935061140b8185602086016113ab565b611414816113d5565b840191505092915050565b600061142b83836113e6565b905092915050565b6000602082019050919050565b600061144b82611363565b611455818561136e565b9350836020820285016114678561137f565b8060005b858110156114a35784840389528151611484858261141f565b945061148f83611433565b925060208a0199505060018101905061146b565b50829750879550505050505092915050565b600060208201905081810360008301526114cf8184611440565b905092915050565b6114e0816112ed565b82525050565b60006020820190506114fb60008301846114d7565b92915050565b600073ffffffffffffffffffffffffffffffffffffffff82169050919050565b600061152c82611501565b9050919050565b61153c81611521565b811461154757600080fd5b50565b60008135905061155981611533565b92915050565b600060208284031215611575576115746112e3565b5b60006115838482850161154a565b91505092915050565b6000819050919050565b60006115b16115ac6115a784611501565b61158c565b611501565b9050919050565b60006115c382611596565b9050919050565b60006115d5826115b8565b9050919050565b6115e5816115ca565b82525050565b600060208201905061160060008301846115dc565b92915050565b61160f81611521565b82525050565b600060208201905061162a6000830184611606565b92915050565b600080fd5b7f4e487b7100000000000000000000000000000000000000000000000000000000600052604160045260246000fd5b61166d826113d5565b810181811067ffffffffffffffff8211171561168c5761168b611635565b5b80604052505050565b600061169f6112d9565b90506116ab8282611664565b919050565b600061ffff82169050919050565b6116c7816116b0565b81146116d257600080fd5b50565b6000813590506116e4816116be565b92915050565b6116f38161129f565b81146116fe57600080fd5b50565b600081359050611710816116ea565b92915050565b6000819050919050565b61172981611716565b811461173457600080fd5b50565b60008135905061174681611720565b92915050565b600064ffffffffff82169050919050565b6117668161174c565b811461177157600080fd5b50565b6000813590506117838161175d565b92915050565b600060c0828403121561179f5761179e611630565b5b6117a960c0611695565b905060006117b9848285016116d5565b60008301525060206117cd84828501611701565b60208301525060406117e184828501611701565b60408301525060606117f584828501611737565b606083015250608061180984828501611774565b60808301525060a061181d84828501611737565b60a08301525092915050565b600080fd5b600080fd5b600080fd5b60008083601f84011261184e5761184d611829565b5b8235905067ffffffffffffffff81111561186b5761186a61182e565b5b60208301915083600182028301111561188757611886611833565b5b9250929050565b600080600060e084860312156118a7576118a66112e3565b5b60006118b586828701611789565b93505060c084013567ffffffffffffffff8111156118d6576118d56112e8565b5b6118e286828701611838565b92509250509250925092565b60008060408385031215611905576119046112e3565b5b600061191385828601611701565b92505060206119248582860161130e565b9150509250929050565b600060208284031215611944576119436112e3565b5b600061195284828501611701565b91505092915050565b600080fd5b600061010082840312156119775761197661195b565b5b81905092915050565b60006101008284031215611997576119966112e3565b5b60006119a584828501611960565b91505092915050565b6000602082840312156119c4576119c36112e3565b5b60006119d28482850161130e565b91505092915050565b6119e481611716565b82525050565b60006020820190506119ff60008301846119db565b92915050565b7f4e487b7100000000000000000000000000000000000000000000000000000000600052601160045260246000fd5b6000611a3f826112ed565b9150611a4a836112ed565b9250828201905080821115611a6257611a61611a05565b5b92915050565b6000611a73826112ed565b9150611a7e836112ed565b9250828203905081811115611a9657611a95611a05565b5b92915050565b7f4e487b7100000000000000000000000000000000000000000000000000000000600052603260045260246000fd5b7f4e487b7100000000000000000000000000000000000000000000000000000000600052602260045260246000fd5b60006002820490506001821680611b1257607f821691505b602082108103611b2557611b24611acb565b5b50919050565b6000611b36826112ed565b91507fffffffffffffffffffffffffffffffffffffffffffffffffffffffffffffffff8203611b6857611b67611a05565b5b600182019050919050565b600082825260208201905092915050565b7f4163636f756e7420616c72656164792072656769737465726564000000000000600082015250565b6000611bba601a83611b73565b9150611bc582611b84565b602082019050919050565b60006020820190508181036000830152611be981611bad565b9050919050565b6000611bfb8261129f565b915063ffffffff8203611c1157611c10611a05565b5b600182019050919050565b6000604082019050611c3160008301856112af565b611c3e6020830184611606565b9392505050565b6000606082019050611c5a6000830186611606565b611c676020830185611606565b611c7460408301846114d7565b949350505050565b60008115159050919050565b611c9181611c7c565b8114611c9c57600080fd5b50565b600081519050611cae81611c88565b92915050565b600060208284031215611cca57611cc96112e3565b5b6000611cd884828501611c9f565b91505092915050565b7f5472616e73666572206661696c65642e00000000000000000000000000000000600082015250565b6000611d17601083611b73565b9150611d2282611ce1565b602082019050919050565b60006020820190508181036000830152611d4681611d0a565b9050919050565b60008190508160005260206000209050919050565b60006020601f8301049050919050565b600082821b905092915050565b600060088302611daf7fffffffffffffffffffffffffffffffffffffffffffffffffffffffffffffffff82611d72565b611db98683611d72565b95508019841693508086168417925050509392505050565b6000611dec611de7611de2846112ed565b61158c565b6112ed565b9050919050565b6000819050919050565b611e0683611dd1565b611e1a611e1282611df3565b848454611d7f565b825550505050565b600090565b611e2f611e22565b611e3a818484611dfd565b505050565b5b81811015611e5e57611e53600082611e27565b600181019050611e40565b5050565b601f821115611ea357611e7481611d4d565b611e7d84611d62565b81016020851015611e8c578190505b611ea0611e9885611d62565b830182611e3f565b50505b505050565b600082821c905092915050565b6000611ec660001984600802611ea8565b1980831691505092915050565b6000611edf8383611eb5565b9150826002028217905092915050565b611ef88261138f565b67ffffffffffffffff811115611f1157611f10611635565b5b611f1b8254611afa565b611f26828285611e62565b600060209050601f831160018114611f595760008415611f47578287015190505b611f518582611ed3565b865550611fb9565b601f198416611f6786611d4d565b60005b82811015611f8f57848901518255600182019150602085019450602081019050611f6a565b86831015611fac5784890151611fa8601f891682611eb5565b8355505b6001600288020188555050505b505050505050565b60006101008284031215611fd857611fd7611630565b5b611fe3610100611695565b90506000611ff3848285016116d5565b600083015250602061200784828501611701565b602083015250604061201b84828501611701565b604083015250606061202f84828501611737565b606083015250608061204384828501611774565b60808301525060a061205784828501611737565b60a08301525060c061206b84828501611737565b60c08301525060e061207f8482850161130e565b60e08301525092915050565b600061010082840312156120a2576120a16112e3565b5b60006120b084828501611fc1565b91505092915050565b7f4f776e61626c653a206e6577206f776e657220697320746865207a65726f206160008201527f6464726573730000000000000000000000000000000000000000000000000000602082015250565b6000612115602683611b73565b9150612120826120b9565b604082019050919050565b6000602082019050818103600083015261214481612108565b9050919050565b612154816116b0565b82525050565b6121638161129f565b82525050565b61217281611716565b82525050565b6121818161174c565b82525050565b612190816112ed565b82525050565b610100820160008201516121ad600085018261214b565b5060208201516121c0602085018261215a565b5060408201516121d3604085018261215a565b5060608201516121e66060850182612169565b5060808201516121f96080850182612178565b5060a082015161220c60a0850182612169565b5060c082015161221f60c0850182612169565b5060e082015161223260e0850182612187565b50505050565b60006101008201905061224e6000830184612196565b92915050565b7f4f776e61626c653a2063616c6c6572206973206e6f7420746865206f776e6572600082015250565b600061228a602083611b73565b915061229582612254565b602082019050919050565b600060208201905081810360008301526122b98161227d565b9050919050565b7f496e76616c696420626c6f636b206e756d6265722e0000000000000000000000600082015250565b60006122f6601583611b73565b9150612301826122c0565b602082019050919050565b60006020820190508181036000830152612325816122e9565b9050919050565b7f56657273696f6e206d69736d617463682e000000000000000000000000000000600082015250565b6000612362601183611b73565b915061236d8261232c565b602082019050919050565b6000602082019050818103600083015261239181612355565b9050919050565b60006040820190506123ad60008301856112af565b6123ba60208301846119db565b9392505050565b60008160e01b9050919050565b60006123d9826123c1565b9050919050565b6123f16123ec8261129f565b6123ce565b82525050565b6000819050919050565b61241261240d826112ed565b6123f7565b82525050565b600061242482866123e0565b6004820191506124348285612401565b6020820191506124448284612401565b602082019150819050949350505050565b7f4f6e6c792070656e64696e6720626c6f636b732063616e20626520636f6e666960008201527f726d65642e000000000000000000000000000000000000000000000000000000602082015250565b60006124b1602583611b73565b91506124bc82612455565b604082019050919050565b600060208201905081810360008301526124e0816124a4565b9050919050565b7f4368616c6c656e676520706572696f64207374696c6c20696e2070726f67726560008201527f73732e0000000000000000000000000000000000000000000000000000000000602082015250565b6000612543602383611b73565b915061254e826124e7565b604082019050919050565b6000602082019050818103600083015261257281612536565b9050919050565b7f426c6f636b73206d75737420626520636f6e6669726d656420696e206f72646560008201527f722e000000000000000000000000000000000000000000000000000000000000602082015250565b60006125d5602283611b73565b91506125e082612579565b604082019050919050565b60006020820190508181036000830152612604816125c8565b9050919050565b600081905092915050565b82818337600083830152505050565b6000612631838561260b565b935061263e838584612616565b82840190509392505050565b6000612657828486612625565b9150819050939250505056fea26469706673582212208941c86a7baea4d30291da9f006217fdf4b2b6059d534e276071b0ed95f1b2fa64736f6c63430008120033",
  "linkReferences": {},
  "deployedLinkReferences": {}
}